{
  "contractName": "ProofOfExistence1",
  "abi": [
    {
      "constant": true,
      "inputs": [],
      "name": "proof",
      "outputs": [
        {
          "name": "",
          "type": "bytes32"
        }
      ],
      "payable": false,
      "stateMutability": "view",
      "type": "function",
      "signature": "0xfaf924cf"
    },
    {
      "constant": false,
      "inputs": [
        {
          "name": "document",
          "type": "string"
        }
      ],
      "name": "notarize",
      "outputs": [],
      "payable": false,
      "stateMutability": "nonpayable",
      "type": "function",
      "signature": "0x7183616c"
    },
    {
      "constant": true,
      "inputs": [
        {
          "name": "document",
          "type": "string"
        }
      ],
      "name": "proofFor",
      "outputs": [
        {
          "name": "",
          "type": "bytes32"
        }
      ],
      "payable": false,
      "stateMutability": "pure",
      "type": "function",
      "signature": "0xf6c1acdf"
    }
  ],
  "bytecode": "0x608060405234801561001057600080fd5b50610384806100206000396000f3fe608060405260043610610057576000357c0100000000000000000000000000000000000000000000000000000000900463ffffffff1680637183616c1461005c578063f6c1acdf14610124578063faf924cf14610200575b600080fd5b34801561006857600080fd5b506101226004803603602081101561007f57600080fd5b810190808035906020019064010000000081111561009c57600080fd5b8201836020820111156100ae57600080fd5b803590602001918460018302840111640100000000831117156100d057600080fd5b91908080601f016020809104026020016040519081016040528093929190818152602001838380828437600081840152601f19601f82011690508083019250505050505050919291929050505061022b565b005b34801561013057600080fd5b506101ea6004803603602081101561014757600080fd5b810190808035906020019064010000000081111561016457600080fd5b82018360208201111561017657600080fd5b8035906020019184600183028401116401000000008311171561019857600080fd5b91908080601f016020809104026020016040519081016040528093929190818152602001838380828437600081840152601f19601f82011690508083019250505050505050919291929050505061023d565b6040518082815260200191505060405180910390f35b34801561020c57600080fd5b50610215610352565b6040518082815260200191505060405180910390f35b6102348161023d565b60008190555050565b60006002826040516020018082805190602001908083835b60208310151561027a5780518252602082019150602081019050602083039250610255565b6001836020036101000a0380198251168184511680821785525050505050509050019150506040516020818303038152906040526040518082805190602001908083835b6020831015156102e357805182526020820191506020810190506020830392506102be565b6001836020036101000a038019825116818451168082178552505050505050905001915050602060405180830381855afa158015610325573d6000803e3d6000fd5b5050506040513d602081101561033a57600080fd5b81019080805190602001909291905050509050919050565b6000548156fea165627a7a723058201ac35bd0dd3f4f58061b930b0625c4859ad741ee669504fac9444cf3d1d4fdc80029",
  "source": "pragma solidity ^0.5.0;\n\ncontract ProofOfExistence1 {\n      // state\n      bytes32 public proof;\n\n      // calculate and store the proof for a document\n      // *transactional function*\n      function notarize(string memory document) public {\n        proof = proofFor(document);\n      }\n\n      // helper function to get a document's sha256\n      // *read-only function*\n      function proofFor(string memory document) public pure returns (bytes32) {\n        return sha256(abi.encodePacked(document));\n      }\n\n}",
  "sourcePath": "/Users/fredrickotim/Documents/programming/ethereum/proof-of-existence/contracts/ProofOfExistence1.sol",
  "compiler": {
    "name": "solc",
    "version": "0.5.0+commit.1d4f565a.Emscripten.clang"
  },
  "schemaVersion": "3.0.5",
  "updatedAt": "2019-03-26T12:19:55.425Z",
  "devdoc": {
    "methods": {}
  },
  "userdoc": {
    "methods": {}
  }
}