{
  "contractName": "ProofOfExistence3",
  "abi": [
    {
      "constant": false,
      "inputs": [
        {
          "name": "document",
          "type": "string"
        }
      ],
      "name": "notarize",
      "outputs": [],
      "payable": false,
      "stateMutability": "nonpayable",
      "type": "function",
      "signature": "0x7183616c"
    },
    {
      "constant": true,
      "inputs": [
        {
          "name": "document",
          "type": "string"
        }
      ],
      "name": "proofFor",
      "outputs": [
        {
          "name": "",
          "type": "bytes32"
        }
      ],
      "payable": false,
      "stateMutability": "pure",
      "type": "function",
      "signature": "0xf6c1acdf"
    },
    {
      "constant": true,
      "inputs": [
        {
          "name": "document",
          "type": "string"
        }
      ],
      "name": "checkDocument",
      "outputs": [
        {
          "name": "",
          "type": "bool"
        }
      ],
      "payable": false,
      "stateMutability": "view",
      "type": "function",
      "signature": "0x53fb9233"
    }
  ],
  "bytecode": "0x608060405234801561001057600080fd5b506103b0806100206000396000f3fe608060405260043610610057576000357c0100000000000000000000000000000000000000000000000000000000900463ffffffff16806353fb92331461005c5780637183616c1461013c578063f6c1acdf146101c2575b600080fd5b34801561006857600080fd5b506101226004803603602081101561007f57600080fd5b810190808035906020019064010000000081111561009c57600080fd5b8201836020820111156100ae57600080fd5b803590602001918460018302840111640100000000831117156100d057600080fd5b91908080601f016020809104026020016040519081016040528093929190818152602001838380828437600081840152601f19601f82011690508083019250505050505050919291929050505061029e565b604051808215151515815260200191505060405180910390f35b34801561014857600080fd5b506101c06004803603602081101561015f57600080fd5b810190808035906020019064010000000081111561017c57600080fd5b82018360208201111561018e57600080fd5b803590602001918460018302840111640100000000831117156101b057600080fd5b90919293919293905050506102bd565b005b3480156101ce57600080fd5b50610288600480360360208110156101e557600080fd5b810190808035906020019064010000000081111561020257600080fd5b82018360208201111561021457600080fd5b8035906020019184600183028401116401000000008311171561023657600080fd5b91908080601f016020809104026020016040519081016040528093929190818152602001838380828437600081840152601f19601f82011690508083019250505050505050919291929050505061031c565b6040518082815260200191505060405180910390f35b6000806102aa8361031c565b90506102b58161032d565b915050919050565b600061030c83838080601f016020809104026020016040519081016040528093929190818152602001838380828437600081840152601f19601f8201169050808301925050505050505061031c565b905061031781610356565b505050565b600081805190602001209050919050565b600080600083815260200190815260200160002060009054906101000a900460ff169050919050565b600160008083815260200190815260200160002060006101000a81548160ff0219169083151502179055505056fea165627a7a72305820ae9978ba3bc735b8b48a6302970c09d4b751e53a9985382a62cb6d795397e9340029",
  "source": "pragma solidity ^0.5.0;\n\ncontract ProofOfExistence3 {\n\n  mapping (bytes32 => bool) private proofs;\n  \n  // store a proof of existence in the contract state\n  function storeProof(bytes32 proof) \n    internal \n  {\n    proofs[proof] = true;\n  }\n  \n  // calculate and store the proof for a document\n  function notarize(string calldata document) \n    external \n  { \n    bytes32 proof = proofFor(document);\n    storeProof(proof);\n  }\n  \n  // helper function to get a document's sha256\n  function proofFor(string memory document) \n    pure \n    public \n    returns (bytes32) \n  {\n    return keccak256(bytes(document));\n  }\n  \n  // check if a document has been notarized\n  function checkDocument(string memory document) \n    public \n    view \n    returns (bool) \n  {\n    bytes32 proof = proofFor(document);\n    return hasProof(proof);\n  }\n\n  // returns true if proof is stored\n  function hasProof(bytes32 proof) \n    internal \n    view \n    returns(bool) \n  {\n    return proofs[proof];\n  }\n}\n",
  "sourcePath": "/Users/fredrickotim/Documents/programming/ethereum/proof-of-existence/contracts/ProofOfExistence3.sol",
  "compiler": {
    "name": "solc",
    "version": "0.5.0+commit.1d4f565a.Emscripten.clang"
  },
  "schemaVersion": "3.0.5",
  "updatedAt": "2019-03-26T12:39:28.635Z",
  "devdoc": {
    "methods": {}
  },
  "userdoc": {
    "methods": {}
  }
}